:020000040000FA
:100000000C9458000C9480000C9480000C94800098
:100010000C9480000C9480000C9480000C94800060
:100020000C9480000C9480000C9480000C94800050
:100030000C9480000C9480000C9480000C94800040
:100040000C945E060C9480000C942C060C9406060E
:100050000C9480000C9480000C9480000C94800020
:100060000C94A8060C9480000000000025002800D5
:100070002B00040404040404040402020202020229
:10008000030303030303010204081020408001025C
:1000900004081020010204081020000000080002DB
:1000A0000100000304070000000000000000C70773
:1000B00011241FBECFEFD8E0DEBFCDBF11E0A0E01E
:1000C000B1E0E2EDF7E102C005900D92A035B10775
:1000D000D9F722E0A0E5B1E001C01D92A83CB2072B
:1000E000E1F710E0C8E5D0E004C02197FE010E94CE
:1000F000E10BC735D107C9F70E940F080C94E70B35
:100100000C94000008950895AF92BF92CF92DF92B1
:10011000EF92FF920F931F93CF93DF936C017B01BC
:100120008B01040F151FEB015E01AE18BF08C0174D
:10013000D10759F06991D601ED91FC910190F081C0
:10014000E02DC6010995892B79F7C501DF91CF9183
:100150001F910F91FF90EF90DF90CF90BF90AF90E5
:100160000895FC01538D448D252F30E0842F90E0BD
:10017000821B930B541710F0CF96089501970895A2
:10018000FC01918D828D981761F0A28DAE0FBF2F6B
:10019000B11D5D968C91928D9F5F9F73928F90E0C1
:1001A00008958FEF9FEF0895FC01918D828D981730
:1001B00031F0828DE80FF11D858D90E008958FEF6D
:1001C0009FEF0895FC01918D228D892F90E0805C36
:1001D0009F4F821B91098F739927089583E192E0C5
:1001E0000E94E20021E0892B09F420E0822F08958B
:1001F00080E090E0892B29F00E94EE0081110C94A0
:1002000000000895FC01A48DA80FB92FB11DA35AB9
:10021000BF4F2C91848D90E001968F739927848F26
:10022000A689B7892C93A089B1898C918370806449
:100230008C93938D848D981306C00288F389E02DEA
:1002400080818F7D80830895EF92FF920F931F939B
:10025000CF93DF93EC0181E0888F9B8D8C8D981379
:100260001AC0E889F989808185FF15C09FB7F89485
:10027000EE89FF896083E889F989808183708064D1
:1002800080839FBF81E090E0DF91CF911F910F911C
:10029000FF90EF900895F62E0B8D10E00F5F1F4F2B
:1002A0000F731127E02E8C8D8E110CC00FB607FC3A
:1002B000FACFE889F989808185FFF5CFCE010E94C8
:1002C0000201F1CFEB8DEC0FFD2FF11DE35AFF4F33
:1002D000F0829FB7F8940B8FEA89FB898081806256
:1002E000CFCFCF93DF93EC01888D8823B9F0AA8913
:1002F000BB89E889F9898C9185FD03C0808186FDE1
:100300000DC00FB607FCF7CF8C9185FFF2CF80812F
:1003100085FFEDCFCE010E940201E9CFDF91CF91A1
:10032000089590E0FC01E656FF4F2491FC01EA5746
:10033000FF4F3491FC01EE58FF4FE491EE23C9F0DA
:10034000222339F0233001F1A8F4213019F12230B1
:1003500029F1F0E0EE0FFF1FE859FF4FA591B4918E
:100360008FB7F894EC91611126C030953E233C93F1
:100370008FBF08952730A9F02830C9F0243049F7FD
:10038000809180008F7D03C0809180008F77809363
:100390008000DFCF84B58F7784BDDBCF84B58F7DC0
:1003A000FBCF8091B0008F778093B000D2CF809147
:1003B000B0008F7DF9CF3E2BDACF8E5080648093D2
:1003C0007C0080917A00806480937A0080917A002A
:1003D00086FDFCCF809178009091790008953FB719
:1003E000F8948091070290910802A0910902B091BF
:1003F0000A0226B5A89B05C02F3F19F00196A11D42
:10040000B11D3FBFBA2FA92F982F8827BC01CD015E
:10041000620F711D811D911D42E0660F771F881FBD
:10042000991F4A95D1F708958F929F92AF92BF92EC
:10043000CF92DF92EF92FF924B015C010E94EF019D
:100440006B017C010E94EF016C197D098E099F09E7
:10045000683E734081059105A8F321E0821A910856
:10046000A108B10888EEC80E83E0D81EE11CF11C7B
:1004700081149104A104B10429F7FF90EF90DF905B
:10048000CF90BF90AF909F908F9008950895209146
:100490009101260F3327331F21323105ECF42091CF
:1004A000DA01FC0190E080E0243069F082E00895F8
:1004B000A09191012191AC014F585E4FA40FB52F2F
:1004C000B11D2C930196861798F380919101680FC6
:1004D0006093910180E0089581E008951092DA011F
:1004E00081E08093D9011092B40161E082E10E9421
:1004F000910161E083E10E949101E9EBF0E08081EC
:100500008E7F808380818D7F808388E48093B80094
:1005100085E48093BC000895CF93DF9391E090939E
:1005200070018823B9F0C091B800D091BA008091D1
:10053000BC008A7B8093BC0060E082E10E94910154
:1005400060E083E10E9491010E946E02D093BA00A4
:10055000C093B800DF91CF9108950895E091120201
:1005600080911102E81730F4F0E0E05BFE4F8081EB
:1005700090E008958FEF9FEF08959091120280917F
:1005800011022FEF3FEF981748F4E92FF0E0E05BFE
:10059000FE4F208130E09F5F90931202C9010895C1
:1005A0008091110290911202891B990B0895CF92AC
:1005B000DF92EF92FF920F931F93CF93DF937C0113
:1005C000CB018A012091E001222389F0EB016B012C
:1005D000C40ED51ECC15DD0569F06991D701ED91EA
:1005E000FC910190F081E02DC7010995F3CF642FB4
:1005F0000E944702C801DF91CF911F910F91FF9098
:10060000EF90DF90CF900895CF93DF931F92CDB7F7
:10061000DEB769832091E0012223F9F020910F02D7
:10062000203258F021E030E0FC013383228390E057
:1006300080E00F90DF91CF91089580911002E82F14
:10064000F0E0EF51FE4F998190838F5F809310020D
:1006500080930F0281E090E0ECCF61E0CE01019643
:100660000E944702F7CFCF92DF92EF92FF920F9353
:100670001F93CF93DF93FC01C48121E02093E0011D
:10068000C09301021092100210920F028385682B12
:1006900080EB92E00E940403D0910F02D13208F067
:1006A00092C00E94EF016B017C018091DA018111FF
:1006B00065C082E08093DA0181E08093D9018FEFF9
:1006C0008093D8011092D701D093D601A1EEB1E06A
:1006D000E6EBF1E080E0D81385C01092B50180917F
:1006E000B501CC0FC82BC093B5018091B401813006
:1006F00009F07CC01092B4010E94EF016B017C01F3
:100700008091B5018093BB008091DC019091DD0167
:10071000A091DE01B091DF01892B8A2B8B2B99F000
:100720000E94EF010091DC011091DD012091DE01BA
:100730003091DF016C197D098E099F090617170793
:1007400028073907E0F18091BC0083FDD9CF85EC03
:100750008093BC000E94EF016B017C018091DA0163
:10076000823009F445C08091D8018F3F61F18091BA
:10077000D801803241F18091D80125C08091DC01FF
:100780009091DD01A091DE01B091DF01892B8A2BD0
:100790008B2B09F48ACF0E94EF010091DC011091AC
:1007A000DD012091DE013091DF016C197D098E0998
:1007B0009F09061717072807390708F076CF809199
:1007C000DB010E948C021092100210920F02109214
:1007D000E001DF91CF911F910F91FF90EF90DF909B
:1007E000CF9008959D9191938F5F75CF85EEB0CF97
:1007F0008091DC019091DD01A091DE01B091DF01DB
:10080000892B8A2B8B2B09F4A9CF0E94EF01009131
:10081000DC011091DD012091DE013091DF016C19C6
:100820007D098E099F09061717072807390708F061
:1008300095CFC5CF90E080E00895FB0101900020A6
:10084000E9F73197AF01461B570BDC01ED91FC91A5
:100850000280F381E02D09948F929F92AF92BF9214
:10086000EF92FF920F931F93CF93DF93CDB7DEB735
:10087000A1970FB6F894DEBF0FBECDBF7C01FA0181
:10088000CB0119A2223008F42AE08E010F5D1F4F20
:10089000822E912CB12CA12CBF01A50194010E94A4
:1008A000BF0BF901CA016A300CF5605DD8016E9387
:1008B0008D01232B242B252B79F790E080E01097D6
:1008C00021F0BD01C7010E941D04A1960FB6F89446
:1008D000DEBF0FBECDBFDF91CF911F910F91FF9073
:1008E000EF90BF90AF909F908F900895695CDECF9E
:1008F0002F923F924F925F926F927F928F929F9230
:10090000AF92BF92CF92DF92EF92FF921F93CF935D
:10091000DF93EC016A017B01722EAB019601CB01E2
:10092000B6010E94BA0B68E371E0811126C046014E
:100930005701E894B7F82FEF3FEF4FE75FE7C501A6
:10094000B4010E94BA0B81110CC02FEF3FEF4FE7AB
:100950005FE7C501B4010E94F0096CE371E018166D
:1009600064F02FEF3FEF4FE75FE4C701B6010E944D
:10097000480B1816B4F460E471E0CE01DF91CF911A
:100980001F91FF90EF90DF90CF90BF90AF909F901E
:100990008F907F906F905F904F903F902F900C942E
:1009A0001D042FEF3FEF4FE75FECC701B6010E9438
:1009B000F00987FDE0CF20E030E0A901C701B601D2
:1009C0000E94F009312C212C87FF0DC0E881F981AC
:1009D0000190F081E02D6DE2CE0109951C01F7FA3E
:1009E000F094F7F8F09410E060E070E080E09FE3AE
:1009F000711641F020E030E040E251E40E94F50938
:100A00001F5FF6CFA70196010E9484092B013C01CC
:100A10000E94670A4B015C012AE0BC01A401CE01DF
:100A20000E942C047C01E20CF31C1123E1F1C501AE
:100A3000B4010E94960A9B01AC01C301B2010E945D
:100A400083094B015C01E881F9810190F081E02D7F
:100A50006EE2CE010995E80EF91E115020F120E05A
:100A600030E040E251E4C501B4010E944D0B2B017E
:100A70003C010E94670A4B01B12CA12C2AE0B50170
:100A8000A401CE010E942C04E80EF91EC501B40198
:100A90000E94960A9B01AC01C301B2010E94830926
:100AA0004B015C01DACFC701DF91CF911F91FF901D
:100AB000EF90DF90CF90BF90AF909F908F907F90FE
:100AC0006F905F904F903F902F9008950F931F93DA
:100AD000CF938C01C62F0E9433036C2F6460C80132
:100AE0000E9433036C2F6B7FC8010E94330383EC99
:100AF00090E00197F1F7CF911F910F9108950F9317
:100B00001F93CF93DF938C01D62FC42F607F642B6C
:100B10000E94660580E1D89FB00111246C2BC801AA
:100B2000DF91CF911F910F910C946605CF93DF93C6
:100B3000CDB7DEB728970FB6F894DEBF0FBECDBF96
:100B400098E0E0E0F1E0DE01119601900D929A95B7
:100B5000E1F79091C402891710F08FEF890F90E0B0
:100B6000880F991F21E030E02C0F3D1F820F931F4B
:100B7000FC016081606840E08CEB92E028960FB643
:100B8000F894DEBF0FBECDBFDF91CF910C947F05EF
:100B900041E00E947F0581E090E0089585ED80931B
:100BA000BC008091DC019091DD01A091DE01B0914B
:100BB000DF010796A11DB11D23E0B695A795979576
:100BC00087952A95D1F72091BC0024FD03C010928F
:100BD000DA0108954091DC015091DD016091DE0160
:100BE0007091DF01452B462B472B69F30097A10538
:100BF000B10541F02AE22A95F1F700C00197A10959
:100C0000B109E1CF8091DB010C948C021F920F920D
:100C10000FB60F9211242F933F934F935F936F93CF
:100C20007F938F939F93AF93BF93EF93FF9383E152
:100C300092E00E940201FF91EF91BF91AF919F91CD
:100C40008F917F916F915F914F913F912F910F9075
:100C50000FBE0F901F9018951F920F920FB60F9214
:100C600011242F938F939F93EF93FF93E09123028F
:100C7000F09124028081E0912902F0912A0282FD04
:100C80001BC0908180912C028F5F8F7320912D0269
:100C9000821741F0E0912C02F0E0ED5EFD4F958F60
:100CA00080932C02FF91EF919F918F912F910F9044
:100CB0000FBE0F901F9018958081F4CF1F920F9256
:100CC0000FB60F9211242F933F938F939F93AF935F
:100CD000BF938091030290910402A0910502B0910C
:100CE00006023091020223E0230F2D3758F50196BA
:100CF000A11DB11D20930202809303029093040270
:100D0000A0930502B0930602809107029091080219
:100D1000A0910902B0910A020196A11DB11D809314
:100D2000070290930802A0930902B0930A02BF91B0
:100D3000AF919F918F913F912F910F900FBE0F9088
:100D40001F90189526E8230F0296A11DB11DD2CF42
:100D50001F920F920FB60F9211242F933F934F9330
:100D60005F936F937F938F939F93AF93BF93EF9313
:100D7000FF938091B900887F803609F44AC0F0F56E
:100D8000883209F4A7C018F5803109F49BC0B8F483
:100D9000882309F4F9C0883009F494C0FF91EF91D9
:100DA000BF91AF919F918F917F916F915F914F9183
:100DB0003F912F910F900FBE0F901F901895883183
:100DC00009F488C0803251F78093D80114C0803470
:100DD00009F49DC040F48033B9F38833F9F6809369
:100DE000D80185ECB0C0803509F485C0883509F498
:100DF00096C0883499F60E94CE05D0CF883909F480
:100E00008CC038F5883729F050F4883611F08037D7
:100E100029F683E08093DA011092B30157C0883835
:100E200009F47BC0803919F0803809F0B7CF809180
:100E3000B301803208F071C0E091B30181E08E0F00
:100E40008093B3018091BB00F0E0ED56FE4F8083AC
:100E50003DC0803B39F0E0F4803A09F479C0883A2B
:100E600009F09CCF84E08093DA01109292011092F5
:100E70009101E0910D02F0910E020995809191018E
:100E800081110FC081E0809391011092710109C01E
:100E9000803C09F4A6CF883C09F4A3CF883B09F035
:100EA0007DCFE091920181E08E0F80939201F0E07E
:100EB000EF58FE4F80818093BB009091920180910A
:100EC000910129C08091B5018093BB0085EC80938E
:100ED000BC0064CF9091D7018091D601981758F546
:100EE000E091D70181E08E0F8093D701F0E0EA54C2
:100EF000FE4F8081E9CFE091D70181E08E0F809392
:100F0000D7018091BB00F0E0EA54FE4F80839091BE
:100F1000D7018091D6019817C8F285E8D8CFE09123
:100F2000D70181E08E0F8093D7018091BB00F0E064
:100F3000EA54FE4F80838091D90181115CCF81E01A
:100F40008093B40184EA8093BC001092DA0126CF2A
:100F500085EC8093BC001092DA018091B30180325D
:100F600030F4E091B301F0E0ED56FE4F1082609155
:100F7000B30170E0E0910B02F0910C0283E991E083
:100F800009951092B3010ACF1092D80134CFE3E152
:100F9000F2E01382128288EE93E0A0E0B0E0848356
:100FA0009583A683B7832CE031E03183208325EC41
:100FB00030E03587248724EC30E03787268720EC23
:100FC00030E0318B208B21EC30E0338B228B22EC14
:100FD00030E0358B248B26EC30E0378B268B118E5E
:100FE000128E138E148EE0EBF2E013821282848351
:100FF0009583A683B7838EE191E091838083ECEBA8
:10100000F2E01382128280E391E09183808380E298
:10101000848384E1818784E08287138608957894AD
:1010200084B5826084BD84B5816084BD85B58260ED
:1010300085BD85B5816085BD80916E00816080939E
:101040006E00109281008091810082608093810007
:101050008091810081608093810080918000816017
:10106000809380008091B10084608093B100809172
:10107000B00081608093B00080917A00846080939A
:101080007A0080917A00826080937A0080917A0061
:10109000816080937A0080917A00806880937A00E2
:1010A0001092C100E0912302F091240282E080833B
:1010B000E0911F02F09120021082E0912102F09154
:1010C00022028FEC808310922B02E0912702F09194
:1010D000280286E08083E0912502F091260280813B
:1010E00080618083E0912502F091260280818860F2
:1010F0008083E0912502F0912602808180688083C0
:10110000E0912502F091260280818F7D80831092EC
:101110001202109211021092100210920F020E94FD
:101120006E0282E890E090930E0280930D0283E8B5
:1011300090E090930C0280930B021092C102809178
:10114000C602823018F098E09093C1028093C402E6
:1011500062E370E080E090E00E9414026091C702B8
:101160008CEB92E00E94330368EE73E080E090E045
:101170000E94140260E38CEB92E00E946605CBE4CF
:10118000D6E4CE010197F1F760E38CEB92E00E9488
:1011900066052197F1F760E38CEB92E00E9466050B
:1011A00083E592E00197F1F760E28CEB92E00E9418
:1011B00066056091C102606240E08CEB92E00E94A3
:1011C0007F0584E08093C20240E06CE08CEB92E00B
:1011D0000E947F0540E061E08CEB92E00E947F0579
:1011E000CBE3DFE1CE010197F1F782E08093C30208
:1011F00040E066E08CEB92E00E947F0540E062E018
:101200008CEB92E00E947F052197F1F788E08093B4
:10121000C70260E08CEB92E00E943303C0E0D0E0B4
:101220008EE00E94DD01BC01990F880B990B0E9492
:10123000980A20E030EC4FE754E40E94F5096B0176
:101240007C0122E0BC01A60183E192E00E947804C7
:1012500064E471E083E192E00E941D048FE00E944B
:10126000DD01BC01990F880B990B0E94980A20E0C0
:1012700030EC4FE754E40E94F5094B015C0122E099
:10128000BC01A40183E192E00E94780464E471E06F
:1012900083E192E00E941D0480E00E94960567E4CD
:1012A00071E08CEB92E00E941D0481E00E949605A3
:1012B00022E0B701A6018CEB92E00E94780482E064
:1012C0000E9496056BE471E08CEB92E00E941D0495
:1012D00083E00E94960522E0B501A4018CEB92E028
:1012E0000E94780464EF71E080E090E00E941402B4
:1012F000209709F495CF0E94EE00882309F490CF3F
:101300000E9400008DCF5058BB27AA270E949B093E
:101310000C940E0B0E94000B38F00E94070B20F07B
:1013200039F49F3F19F426F40C94FD0A0EF4E0956D
:10133000E7FB0C94F70AE92F0E941F0B58F3BA172A
:10134000620773078407950720F079F4A6F50C94DB
:10135000410B0EF4E0950B2EBA2FA02D0B01B90115
:1013600090010C01CA01A0011124FF27591B99F01B
:10137000593F50F4503E68F11A16F040A22F232F27
:10138000342F4427585FF3CF469537952795A79577
:10139000F0405395C9F77EF41F16BA0B620B730B1E
:1013A000840BBAF09150A1F0FF0FBB1F661F771F8F
:1013B000881FC2F70EC0BA0F621F731F841F48F444
:1013C000879577956795B795F7959E3F08F0B0CFCD
:1013D0009395880F08F09927EE0F979587950895B4
:1013E0000E94D30A08F481E008950E94090A0C942F
:1013F0000E0B0E94070B58F00E94000B40F029F4DE
:101400005F3F29F00C94F70A51110C94420B0C9495
:10141000FD0A0E941F0B68F39923B1F3552391F342
:10142000951B550BBB27AA2762177307840738F053
:101430009F5F5F4F220F331F441FAA1FA9F335D0B0
:101440000E2E3AF0E0E832D091505040E695001C64
:10145000CAF72BD0FE2F29D0660F771F881FBB1F1E
:10146000261737074807AB07B0E809F0BB0B802DFC
:10147000BF01FF2793585F4F3AF09E3F510578F028
:101480000C94F70A0C94420B5F3FE4F3983ED4F3BC
:10149000869577956795B795F7959F5FC9F7880FFC
:1014A000911D9695879597F90895E1E0660F771F4E
:1014B000881FBB1F621773078407BA0720F0621BDF
:1014C000730B840BBA0BEE1F88F7E09508950E940A
:1014D000270B88F09F5798F0B92F9927B751B0F094
:1014E000E1F0660F771F881F991F1AF0BA95C9F7A8
:1014F00014C0B13091F00E94410BB1E008950C94FA
:10150000410B672F782F8827B85F39F0B93FCCF3AC
:10151000869577956795B395D9F73EF49095809524
:10152000709561957F4F8F4F9F4F0895E89409C044
:1015300097FB3EF490958095709561957F4F8F4F06
:101540009F4F9923A9F0F92F96E9BB279395F6951C
:10155000879577956795B795F111F8CFFAF4BB0F9A
:1015600011F460FF1BC06F5F7F4F8F4F9F4F16C0FE
:10157000882311F096E911C0772321F09EE8872F88
:10158000762F05C0662371F096E8862F70E060E044
:101590002AF09A95660F771F881FDAF7880F9695BD
:1015A000879597F90895990F0008550FAA0BE0E861
:1015B000FEEF16161706E807F907C0F01216130615
:1015C000E407F50798F0621B730B840B950B39F455
:1015D0000A2661F0232B242B252B21F408950A26BB
:1015E00009F4A140A6958FEF811D811D089597F9FB
:1015F0009F6780E870E060E008959FEF80EC0895B9
:1016000000240A94161617061806090608950024E1
:101610000A9412161306140605060895092E03945B
:10162000000C11F4882352F0BB0F40F4BF2B11F4CF
:1016300060FF04C06F5F7F4F8F4F9F4F089557FD2E
:101640009058440F551F59F05F3F71F04795880F30
:1016500097FB991F61F09F3F79F0879508951216C7
:1016600013061406551FF2CF4695F1DF08C0161673
:1016700017061806991FF1CF869571056105089424
:101680000895E894BB2766277727CB0197F908953B
:101690000E94D30A08F48FEF08950E94600B0C9407
:1016A0000E0B0E94000B38F00E94070B20F09523D0
:1016B00011F00C94F70A0C94FD0A11240C94420BBF
:1016C0000E941F0B70F3959FC1F3950F50E0551FBB
:1016D000629FF001729FBB27F00DB11D639FAA2787
:1016E000F00DB11DAA1F649F6627B00DA11D661FD6
:1016F000829F2227B00DA11D621F739FB00DA11DF7
:10170000621F839FA00D611D221F749F3327A00DB0
:10171000611D231F849F600D211D822F762F6A2F4C
:1017200011249F5750409AF0F1F088234AF0EE0FB1
:10173000FF1FBB1F661F771F881F91505040A9F7DE
:101740009E3F510580F00C94F70A0C94420B5F3FCA
:10175000E4F3983ED4F3869577956795B795F7951A
:10176000E7959F5FC1F7FE2B880F911D9695879592
:1017700097F908950E94D30A880B990B0895A1E266
:101780001A2EAA1BBB1BFD010DC0AA1FBB1FEE1FFB
:10179000FF1FA217B307E407F50720F0A21BB30B46
:1017A000E40BF50B661F771F881F991F1A9469F7C2
:1017B00060957095809590959B01AC01BD01CF011E
:1017C0000895EE0FFF1F0590F491E02D0994F89411
:1017D000FFCF00004000140054000000000024016E
:1017E0008400B1007101E200C000D40000000000DC
:1017F0000403D7021A04AD02D002BD02AE020000FB
:101800000000C80584001A0446026E616E00696E0D
:1018100066006F7666000D0A0056313A0056323A7D
:021820000000C6
:107E0000112484B714BE81FFF0D085E080938100F7
:107E100082E08093C00088E18093C10086E0809377
:107E2000C20080E18093C4008EE0C9D0259A86E02C
:107E300020E33CEF91E0309385002093840096BBD3
:107E4000B09BFECF1D9AA8958150A9F7CC24DD24C4
:107E500088248394B5E0AB2EA1E19A2EF3E0BF2EE7
:107E6000A2D0813461F49FD0082FAFD0023811F036
:107E7000013811F484E001C083E08DD089C08234E0
:107E800011F484E103C0853419F485E0A6D080C0E4
:107E9000853579F488D0E82EFF2485D0082F10E0AE
:107EA000102F00270E291F29000F111F8ED06801E7
:107EB0006FC0863521F484E090D080E0DECF843638
:107EC00009F040C070D06FD0082F6DD080E0C81688
:107ED00080E7D80618F4F601B7BEE895C0E0D1E017
:107EE00062D089930C17E1F7F0E0CF16F0E7DF06D8
:107EF00018F0F601B7BEE89568D007B600FCFDCFD4
:107F0000A601A0E0B1E02C9130E011968C91119780
:107F100090E0982F8827822B932B1296FA010C0160
:107F200087BEE89511244E5F5F4FF1E0A038BF0790
:107F300051F7F601A7BEE89507B600FCFDCF97BE46
:107F4000E89526C08437B1F42ED02DD0F82E2BD052
:107F50003CD0F601EF2C8F010F5F1F4F84911BD097
:107F6000EA94F801C1F70894C11CD11CFA94CF0C13
:107F7000D11C0EC0853739F428D08EE10CD085E9AC
:107F80000AD08FE07ACF813511F488E018D01DD067
:107F900080E101D065CF982F8091C00085FFFCCF94
:107FA0009093C60008958091C00087FFFCCF809118
:107FB000C00084FD01C0A8958091C6000895E0E648
:107FC000F0E098E1908380830895EDDF803219F02E
:107FD00088E0F5DFFFCF84E1DECF1F93182FE3DFCA
:107FE0001150E9F7F2DF1F91089580E0E8DFEE27F6
:047FF000FF270994CA
:027FFE00040479
:00000001FF
